{
  "_format": "hh-sol-artifact-1",
  "contractName": "BridgeIntent",
  "sourceName": "contracts/BridgeIntent.sol",
  "abi": [
    {
      "inputs": [
        {
          "internalType": "uint256",
          "name": "_chainId",
          "type": "uint256"
        }
      ],
      "stateMutability": "nonpayable",
      "type": "constructor"
    },
    {
      "inputs": [
        {
          "internalType": "address",
          "name": "owner",
          "type": "address"
        }
      ],
      "name": "OwnableInvalidOwner",
      "type": "error"
    },
    {
      "inputs": [
        {
          "internalType": "address",
          "name": "account",
          "type": "address"
        }
      ],
      "name": "OwnableUnauthorizedAccount",
      "type": "error"
    },
    {
      "inputs": [],
      "name": "ReentrancyGuardReentrantCall",
      "type": "error"
    },
    {
      "inputs": [
        {
          "internalType": "address",
          "name": "token",
          "type": "address"
        }
      ],
      "name": "SafeERC20FailedOperation",
      "type": "error"
    },
    {
      "anonymous": false,
      "inputs": [
        {
          "indexed": true,
          "internalType": "uint256",
          "name": "intentId",
          "type": "uint256"
        },
        {
          "indexed": true,
          "internalType": "address",
          "name": "solver",
          "type": "address"
        },
        {
          "indexed": false,
          "internalType": "uint256",
          "name": "bidAmount",
          "type": "uint256"
        },
        {
          "indexed": false,
          "internalType": "uint256",
          "name": "timestamp",
          "type": "uint256"
        }
      ],
      "name": "BidPlaced",
      "type": "event"
    },
    {
      "anonymous": false,
      "inputs": [
        {
          "indexed": true,
          "internalType": "uint256",
          "name": "intentId",
          "type": "uint256"
        },
        {
          "indexed": false,
          "internalType": "address[]",
          "name": "recipients",
          "type": "address[]"
        },
        {
          "indexed": false,
          "internalType": "uint256[]",
          "name": "amounts",
          "type": "uint256[]"
        }
      ],
      "name": "FundsDistributed",
      "type": "event"
    },
    {
      "anonymous": false,
      "inputs": [
        {
          "indexed": true,
          "internalType": "uint256",
          "name": "intentId",
          "type": "uint256"
        },
        {
          "indexed": true,
          "internalType": "address",
          "name": "solver",
          "type": "address"
        }
      ],
      "name": "IntentCompleted",
      "type": "event"
    },
    {
      "anonymous": false,
      "inputs": [
        {
          "indexed": true,
          "internalType": "uint256",
          "name": "intentId",
          "type": "uint256"
        },
        {
          "indexed": true,
          "internalType": "address",
          "name": "user",
          "type": "address"
        },
        {
          "indexed": false,
          "internalType": "address",
          "name": "tokenA",
          "type": "address"
        },
        {
          "indexed": false,
          "internalType": "address",
          "name": "tokenB",
          "type": "address"
        },
        {
          "indexed": false,
          "internalType": "uint256",
          "name": "amountA",
          "type": "uint256"
        },
        {
          "indexed": false,
          "internalType": "uint256",
          "name": "expectedAmountB",
          "type": "uint256"
        },
        {
          "indexed": false,
          "internalType": "uint256",
          "name": "reward",
          "type": "uint256"
        },
        {
          "indexed": false,
          "internalType": "uint256",
          "name": "endTime",
          "type": "uint256"
        }
      ],
      "name": "IntentCreated",
      "type": "event"
    },
    {
      "anonymous": false,
      "inputs": [
        {
          "indexed": true,
          "internalType": "uint256",
          "name": "intentId",
          "type": "uint256"
        },
        {
          "indexed": true,
          "internalType": "address",
          "name": "solver",
          "type": "address"
        },
        {
          "indexed": false,
          "internalType": "uint256",
          "name": "amountA",
          "type": "uint256"
        },
        {
          "indexed": false,
          "internalType": "uint256",
          "name": "reward",
          "type": "uint256"
        },
        {
          "indexed": false,
          "internalType": "uint256",
          "name": "winningBid",
          "type": "uint256"
        }
      ],
      "name": "IntentSettled",
      "type": "event"
    },
    {
      "anonymous": false,
      "inputs": [
        {
          "indexed": true,
          "internalType": "uint256",
          "name": "intentId",
          "type": "uint256"
        },
        {
          "indexed": true,
          "internalType": "address",
          "name": "solver",
          "type": "address"
        },
        {
          "indexed": false,
          "internalType": "address",
          "name": "tokenB",
          "type": "address"
        },
        {
          "indexed": false,
          "internalType": "uint256",
          "name": "amountB",
          "type": "uint256"
        }
      ],
      "name": "IntentSolvedOnChain2",
      "type": "event"
    },
    {
      "anonymous": false,
      "inputs": [
        {
          "indexed": true,
          "internalType": "uint256",
          "name": "intentId",
          "type": "uint256"
        },
        {
          "indexed": true,
          "internalType": "address",
          "name": "winningSolver",
          "type": "address"
        },
        {
          "indexed": false,
          "internalType": "uint256",
          "name": "winningBid",
          "type": "uint256"
        }
      ],
      "name": "IntentWon",
      "type": "event"
    },
    {
      "anonymous": false,
      "inputs": [
        {
          "indexed": true,
          "internalType": "address",
          "name": "previousOwner",
          "type": "address"
        },
        {
          "indexed": true,
          "internalType": "address",
          "name": "newOwner",
          "type": "address"
        }
      ],
      "name": "OwnershipTransferred",
      "type": "event"
    },
    {
      "anonymous": false,
      "inputs": [
        {
          "indexed": true,
          "internalType": "uint256",
          "name": "intentId",
          "type": "uint256"
        },
        {
          "indexed": true,
          "internalType": "address",
          "name": "solver",
          "type": "address"
        },
        {
          "indexed": false,
          "internalType": "uint256",
          "name": "amount",
          "type": "uint256"
        }
      ],
      "name": "SolverDeposited",
      "type": "event"
    },
    {
      "inputs": [],
      "name": "MAX_AUCTION_DURATION",
      "outputs": [
        {
          "internalType": "uint256",
          "name": "",
          "type": "uint256"
        }
      ],
      "stateMutability": "view",
      "type": "function"
    },
    {
      "inputs": [],
      "name": "MIN_AUCTION_DURATION",
      "outputs": [
        {
          "internalType": "uint256",
          "name": "",
          "type": "uint256"
        }
      ],
      "stateMutability": "view",
      "type": "function"
    },
    {
      "inputs": [
        {
          "internalType": "address",
          "name": "_relayer",
          "type": "address"
        }
      ],
      "name": "addRelayer",
      "outputs": [],
      "stateMutability": "nonpayable",
      "type": "function"
    },
    {
      "inputs": [
        {
          "internalType": "address",
          "name": "",
          "type": "address"
        }
      ],
      "name": "authorizedRelayers",
      "outputs": [
        {
          "internalType": "bool",
          "name": "",
          "type": "bool"
        }
      ],
      "stateMutability": "view",
      "type": "function"
    },
    {
      "inputs": [
        {
          "internalType": "uint256",
          "name": "_intentId",
          "type": "uint256"
        }
      ],
      "name": "cancelIntent",
      "outputs": [],
      "stateMutability": "nonpayable",
      "type": "function"
    },
    {
      "inputs": [],
      "name": "chainId",
      "outputs": [
        {
          "internalType": "uint256",
          "name": "",
          "type": "uint256"
        }
      ],
      "stateMutability": "view",
      "type": "function"
    },
    {
      "inputs": [
        {
          "internalType": "address",
          "name": "_tokenA",
          "type": "address"
        },
        {
          "internalType": "address",
          "name": "_tokenB",
          "type": "address"
        },
        {
          "internalType": "uint256",
          "name": "_amountA",
          "type": "uint256"
        },
        {
          "internalType": "uint256",
          "name": "_expectedAmountB",
          "type": "uint256"
        },
        {
          "internalType": "uint256",
          "name": "_reward",
          "type": "uint256"
        },
        {
          "internalType": "uint256",
          "name": "_auctionDuration",
          "type": "uint256"
        }
      ],
      "name": "createIntent",
      "outputs": [],
      "stateMutability": "nonpayable",
      "type": "function"
    },
    {
      "inputs": [
        {
          "internalType": "uint256",
          "name": "_intentId",
          "type": "uint256"
        }
      ],
      "name": "depositAndPickup",
      "outputs": [],
      "stateMutability": "nonpayable",
      "type": "function"
    },
    {
      "inputs": [
        {
          "internalType": "uint256",
          "name": "_intentId",
          "type": "uint256"
        },
        {
          "internalType": "address[]",
          "name": "_recipients",
          "type": "address[]"
        },
        {
          "internalType": "uint256[]",
          "name": "_amounts",
          "type": "uint256[]"
        }
      ],
      "name": "distributeFunds",
      "outputs": [],
      "stateMutability": "nonpayable",
      "type": "function"
    },
    {
      "inputs": [
        {
          "internalType": "uint256",
          "name": "_intentId",
          "type": "uint256"
        }
      ],
      "name": "finalizeAuction",
      "outputs": [],
      "stateMutability": "nonpayable",
      "type": "function"
    },
    {
      "inputs": [
        {
          "internalType": "uint256",
          "name": "_localIntentId",
          "type": "uint256"
        }
      ],
      "name": "generateIntentId",
      "outputs": [
        {
          "internalType": "uint256",
          "name": "",
          "type": "uint256"
        }
      ],
      "stateMutability": "view",
      "type": "function"
    },
    {
      "inputs": [],
      "name": "getActiveIntents",
      "outputs": [
        {
          "internalType": "uint256[]",
          "name": "",
          "type": "uint256[]"
        }
      ],
      "stateMutability": "view",
      "type": "function"
    },
    {
      "inputs": [],
      "name": "getChainId",
      "outputs": [
        {
          "internalType": "uint256",
          "name": "",
          "type": "uint256"
        }
      ],
      "stateMutability": "view",
      "type": "function"
    },
    {
      "inputs": [
        {
          "internalType": "uint256",
          "name": "_intentId",
          "type": "uint256"
        }
      ],
      "name": "getChainIdFromIntentId",
      "outputs": [
        {
          "internalType": "uint256",
          "name": "",
          "type": "uint256"
        }
      ],
      "stateMutability": "pure",
      "type": "function"
    },
    {
      "inputs": [
        {
          "internalType": "uint256",
          "name": "intentId",
          "type": "uint256"
        }
      ],
      "name": "getHighestBid",
      "outputs": [
        {
          "internalType": "uint256",
          "name": "amount",
          "type": "uint256"
        },
        {
          "internalType": "address",
          "name": "bidder",
          "type": "address"
        }
      ],
      "stateMutability": "view",
      "type": "function"
    },
    {
      "inputs": [
        {
          "internalType": "uint256",
          "name": "_intentId",
          "type": "uint256"
        }
      ],
      "name": "getIntent",
      "outputs": [
        {
          "components": [
            {
              "internalType": "uint256",
              "name": "intentId",
              "type": "uint256"
            },
            {
              "internalType": "address",
              "name": "user",
              "type": "address"
            },
            {
              "internalType": "address",
              "name": "tokenA",
              "type": "address"
            },
            {
              "internalType": "address",
              "name": "tokenB",
              "type": "address"
            },
            {
              "internalType": "uint256",
              "name": "amountA",
              "type": "uint256"
            },
            {
              "internalType": "uint256",
              "name": "expectedAmountB",
              "type": "uint256"
            },
            {
              "internalType": "uint256",
              "name": "reward",
              "type": "uint256"
            },
            {
              "internalType": "uint256",
              "name": "endTime",
              "type": "uint256"
            },
            {
              "internalType": "address",
              "name": "winningSolver",
              "type": "address"
            },
            {
              "internalType": "uint256",
              "name": "winningBid",
              "type": "uint256"
            },
            {
              "internalType": "bool",
              "name": "completed",
              "type": "bool"
            },
            {
              "internalType": "bool",
              "name": "deposited",
              "type": "bool"
            }
          ],
          "internalType": "struct BridgeIntent.Intent",
          "name": "",
          "type": "tuple"
        }
      ],
      "stateMutability": "view",
      "type": "function"
    },
    {
      "inputs": [
        {
          "internalType": "uint256",
          "name": "_intentId",
          "type": "uint256"
        }
      ],
      "name": "getIntentBids",
      "outputs": [
        {
          "components": [
            {
              "internalType": "address",
              "name": "solver",
              "type": "address"
            },
            {
              "internalType": "uint256",
              "name": "bidAmount",
              "type": "uint256"
            },
            {
              "internalType": "uint256",
              "name": "timestamp",
              "type": "uint256"
            }
          ],
          "internalType": "struct BridgeIntent.Bid[]",
          "name": "",
          "type": "tuple[]"
        }
      ],
      "stateMutability": "view",
      "type": "function"
    },
    {
      "inputs": [
        {
          "internalType": "uint256",
          "name": "intentId",
          "type": "uint256"
        }
      ],
      "name": "getIntentBidsCount",
      "outputs": [
        {
          "internalType": "uint256",
          "name": "",
          "type": "uint256"
        }
      ],
      "stateMutability": "view",
      "type": "function"
    },
    {
      "inputs": [
        {
          "internalType": "uint256",
          "name": "intentId",
          "type": "uint256"
        }
      ],
      "name": "getIntentDetails",
      "outputs": [
        {
          "internalType": "address",
          "name": "tokenA",
          "type": "address"
        },
        {
          "internalType": "address",
          "name": "tokenB",
          "type": "address"
        },
        {
          "internalType": "uint256",
          "name": "amountA",
          "type": "uint256"
        },
        {
          "internalType": "uint256",
          "name": "expectedAmountB",
          "type": "uint256"
        },
        {
          "internalType": "uint256",
          "name": "reward",
          "type": "uint256"
        },
        {
          "internalType": "uint256",
          "name": "endTime",
          "type": "uint256"
        },
        {
          "internalType": "bool",
          "name": "completed",
          "type": "bool"
        },
        {
          "internalType": "address",
          "name": "user",
          "type": "address"
        },
        {
          "internalType": "address",
          "name": "winningSolver",
          "type": "address"
        },
        {
          "internalType": "uint256",
          "name": "winningBid",
          "type": "uint256"
        }
      ],
      "stateMutability": "view",
      "type": "function"
    },
    {
      "inputs": [
        {
          "internalType": "uint256",
          "name": "intentId",
          "type": "uint256"
        }
      ],
      "name": "getIntentTimeRemaining",
      "outputs": [
        {
          "internalType": "uint256",
          "name": "",
          "type": "uint256"
        }
      ],
      "stateMutability": "view",
      "type": "function"
    },
    {
      "inputs": [],
      "name": "getLatestIntentId",
      "outputs": [
        {
          "internalType": "uint256",
          "name": "",
          "type": "uint256"
        }
      ],
      "stateMutability": "view",
      "type": "function"
    },
    {
      "inputs": [
        {
          "internalType": "uint256",
          "name": "_intentId",
          "type": "uint256"
        }
      ],
      "name": "getLocalIntentId",
      "outputs": [
        {
          "internalType": "uint256",
          "name": "",
          "type": "uint256"
        }
      ],
      "stateMutability": "pure",
      "type": "function"
    },
    {
      "inputs": [
        {
          "internalType": "uint256",
          "name": "",
          "type": "uint256"
        },
        {
          "internalType": "uint256",
          "name": "",
          "type": "uint256"
        }
      ],
      "name": "intentBids",
      "outputs": [
        {
          "internalType": "address",
          "name": "solver",
          "type": "address"
        },
        {
          "internalType": "uint256",
          "name": "bidAmount",
          "type": "uint256"
        },
        {
          "internalType": "uint256",
          "name": "timestamp",
          "type": "uint256"
        }
      ],
      "stateMutability": "view",
      "type": "function"
    },
    {
      "inputs": [
        {
          "internalType": "uint256",
          "name": "",
          "type": "uint256"
        }
      ],
      "name": "intents",
      "outputs": [
        {
          "internalType": "uint256",
          "name": "intentId",
          "type": "uint256"
        },
        {
          "internalType": "address",
          "name": "user",
          "type": "address"
        },
        {
          "internalType": "address",
          "name": "tokenA",
          "type": "address"
        },
        {
          "internalType": "address",
          "name": "tokenB",
          "type": "address"
        },
        {
          "internalType": "uint256",
          "name": "amountA",
          "type": "uint256"
        },
        {
          "internalType": "uint256",
          "name": "expectedAmountB",
          "type": "uint256"
        },
        {
          "internalType": "uint256",
          "name": "reward",
          "type": "uint256"
        },
        {
          "internalType": "uint256",
          "name": "endTime",
          "type": "uint256"
        },
        {
          "internalType": "address",
          "name": "winningSolver",
          "type": "address"
        },
        {
          "internalType": "uint256",
          "name": "winningBid",
          "type": "uint256"
        },
        {
          "internalType": "bool",
          "name": "completed",
          "type": "bool"
        },
        {
          "internalType": "bool",
          "name": "deposited",
          "type": "bool"
        }
      ],
      "stateMutability": "view",
      "type": "function"
    },
    {
      "inputs": [
        {
          "internalType": "uint256",
          "name": "intentId",
          "type": "uint256"
        }
      ],
      "name": "isIntentActive",
      "outputs": [
        {
          "internalType": "bool",
          "name": "",
          "type": "bool"
        }
      ],
      "stateMutability": "view",
      "type": "function"
    },
    {
      "inputs": [
        {
          "internalType": "uint256",
          "name": "_intentId",
          "type": "uint256"
        }
      ],
      "name": "isIntentSolvedOnChain2",
      "outputs": [
        {
          "internalType": "bool",
          "name": "",
          "type": "bool"
        }
      ],
      "stateMutability": "view",
      "type": "function"
    },
    {
      "inputs": [],
      "name": "nextIntentId",
      "outputs": [
        {
          "internalType": "uint256",
          "name": "",
          "type": "uint256"
        }
      ],
      "stateMutability": "view",
      "type": "function"
    },
    {
      "inputs": [],
      "name": "owner",
      "outputs": [
        {
          "internalType": "address",
          "name": "",
          "type": "address"
        }
      ],
      "stateMutability": "view",
      "type": "function"
    },
    {
      "inputs": [
        {
          "internalType": "uint256",
          "name": "_intentId",
          "type": "uint256"
        },
        {
          "internalType": "uint256",
          "name": "_bidAmount",
          "type": "uint256"
        }
      ],
      "name": "placeBid",
      "outputs": [],
      "stateMutability": "nonpayable",
      "type": "function"
    },
    {
      "inputs": [
        {
          "internalType": "address",
          "name": "_relayer",
          "type": "address"
        }
      ],
      "name": "removeRelayer",
      "outputs": [],
      "stateMutability": "nonpayable",
      "type": "function"
    },
    {
      "inputs": [],
      "name": "renounceOwnership",
      "outputs": [],
      "stateMutability": "nonpayable",
      "type": "function"
    },
    {
      "inputs": [
        {
          "internalType": "uint256",
          "name": "_intentId",
          "type": "uint256"
        }
      ],
      "name": "settleIntent",
      "outputs": [],
      "stateMutability": "nonpayable",
      "type": "function"
    },
    {
      "inputs": [
        {
          "internalType": "uint256",
          "name": "_intentId",
          "type": "uint256"
        },
        {
          "internalType": "uint256",
          "name": "_chain2IntentId",
          "type": "uint256"
        }
      ],
      "name": "settleIntentWithChain2Verification",
      "outputs": [],
      "stateMutability": "nonpayable",
      "type": "function"
    },
    {
      "inputs": [
        {
          "internalType": "uint256",
          "name": "_intentId",
          "type": "uint256"
        },
        {
          "internalType": "address",
          "name": "_user",
          "type": "address"
        },
        {
          "internalType": "address",
          "name": "_tokenB",
          "type": "address"
        },
        {
          "internalType": "uint256",
          "name": "_expectedAmountB",
          "type": "uint256"
        },
        {
          "internalType": "address[]",
          "name": "_recipients",
          "type": "address[]"
        },
        {
          "internalType": "uint256[]",
          "name": "_amounts",
          "type": "uint256[]"
        }
      ],
      "name": "solveIntentOnChain2",
      "outputs": [],
      "stateMutability": "nonpayable",
      "type": "function"
    },
    {
      "inputs": [
        {
          "internalType": "uint256",
          "name": "",
          "type": "uint256"
        }
      ],
      "name": "solvedIntents",
      "outputs": [
        {
          "internalType": "bool",
          "name": "",
          "type": "bool"
        }
      ],
      "stateMutability": "view",
      "type": "function"
    },
    {
      "inputs": [
        {
          "internalType": "uint256",
          "name": "",
          "type": "uint256"
        },
        {
          "internalType": "address",
          "name": "",
          "type": "address"
        }
      ],
      "name": "solverBids",
      "outputs": [
        {
          "internalType": "uint256",
          "name": "",
          "type": "uint256"
        }
      ],
      "stateMutability": "view",
      "type": "function"
    },
    {
      "inputs": [
        {
          "internalType": "address",
          "name": "newOwner",
          "type": "address"
        }
      ],
      "name": "transferOwnership",
      "outputs": [],
      "stateMutability": "nonpayable",
      "type": "function"
    }
  ],
  "bytecode": "0x6080604052600160075534801561001557600080fd5b50604051615c4d380380615c4d833981810160405281019061003791906101d0565b336001600081905550600073ffffffffffffffffffffffffffffffffffffffff168173ffffffffffffffffffffffffffffffffffffffff16036100b25760006040517f1e4fbdf70000000000000000000000000000000000000000000000000000000081526004016100a9919061023e565b60405180910390fd5b6100c1816100cf60201b60201c565b508060088190555050610259565b6000600160009054906101000a900473ffffffffffffffffffffffffffffffffffffffff16905081600160006101000a81548173ffffffffffffffffffffffffffffffffffffffff021916908373ffffffffffffffffffffffffffffffffffffffff1602179055508173ffffffffffffffffffffffffffffffffffffffff168173ffffffffffffffffffffffffffffffffffffffff167f8be0079c531659141344cd1fd0a4f28419497f9722a3daafe3b4186f6b6457e060405160405180910390a35050565b600080fd5b6000819050919050565b6101ad8161019a565b81146101b857600080fd5b50565b6000815190506101ca816101a4565b92915050565b6000602082840312156101e6576101e5610195565b5b60006101f4848285016101bb565b91505092915050565b600073ffffffffffffffffffffffffffffffffffffffff82169050919050565b6000610228826101fd565b9050919050565b6102388161021d565b82525050565b6000602082019050610253600083018461022f565b92915050565b6159e5806102686000396000f3fe608060405234801561001057600080fd5b50600436106102275760003560e01c80638da5cb5b11610130578063a85c96f6116100b8578063e80838631161007c578063e8083863146106d9578063eca3d41a146106f5578063f0d2c23014610725578063f2fde38b14610741578063fd13ae861461075d57610227565b8063a85c96f61461062e578063c2f50a7a1461064a578063cceb5dbd14610668578063dd39f00d146106a1578063e6e29781146106bd57610227565b80639b7b7b1e116100ff5780639b7b7b1e146105765780639eb76f2d14610594578063a0a31aac146105c6578063a69437d0146105e2578063a7f78f491461061257610227565b80638da5cb5b146104d95780638f288644146104f7578063906e277b146105285780639a8a05921461055857610227565b80633fb35178116101b357806360f0a5ac1161018257806360f0a5ac14610423578063715018a61461043f5780637642c7d8146104495780637c79d2d71461047957806382c63cb8146104a957610227565b80633fb351781461039057806346a1a095146103ae578063513a80c1146103e957806357c90de51461040757610227565b8063276fdc33116101fa578063276fdc33146102d857806328371ba2146102f657806329e295c5146103265780632f47baa8146103565780633408e4701461037257610227565b806308ca691c1461022c5780630c2a5bf11461025c5780630cb127dc1461028c57806313afd036146102bc575b600080fd5b61024660048036038101906102419190614064565b61078d565b60405161025391906140ac565b60405180910390f35b61027660048036038101906102719190614064565b6107b7565b60405161028391906140ac565b60405180910390f35b6102a660048036038101906102a19190614064565b6107d7565b6040516102b391906140d6565b60405180910390f35b6102d660048036038101906102d1919061414f565b6107f7565b005b6102e0610d23565b6040516102ed919061429a565b60405180910390f35b610310600480360381019061030b9190614064565b610f21565b60405161031d91906140d6565b60405180910390f35b610340600480360381019061033b91906142bc565b610f33565b60405161034d91906140ac565b60405180910390f35b610370600480360381019061036b91906143a4565b610f53565b005b61037a6113e0565b60405161038791906140d6565b60405180910390f35b6103986113ea565b6040516103a591906140d6565b60405180910390f35b6103c860048036038101906103c39190614064565b6113f1565b6040516103e09c9b9a99989796959493929190614482565b60405180910390f35b6103f16114eb565b6040516103fe91906140d6565b60405180910390f35b610421600480360381019061041c919061453c565b61151d565b005b61043d600480360381019061043891906142bc565b6118b9565b005b61044761191c565b005b610463600480360381019061045e9190614064565b611930565b60405161047091906140d6565b60405180910390f35b610493600480360381019061048e919061457c565b61194c565b6040516104a091906140d6565b60405180910390f35b6104c360048036038101906104be9190614064565b611971565b6040516104d091906146bc565b60405180910390f35b6104e1611af0565b6040516104ee91906146de565b60405180910390f35b610511600480360381019061050c9190614064565b611b1a565b60405161051f9291906146f9565b60405180910390f35b610542600480360381019061053d9190614064565b611c30565b60405161054f9190614827565b60405180910390f35b610560611ecb565b60405161056d91906140d6565b60405180910390f35b61057e611ed1565b60405161058b91906140d6565b60405180910390f35b6105ae60048036038101906105a9919061453c565b611ed7565b6040516105bd93929190614843565b60405180910390f35b6105e060048036038101906105db9190614064565b611f3e565b005b6105fc60048036038101906105f79190614064565b61231a565b60405161060991906140ac565b60405180910390f35b61062c6004803603810190610627919061453c565b61235c565b005b6106486004803603810190610643919061487a565b61289d565b005b610652612e52565b60405161065f91906140d6565b60405180910390f35b610682600480360381019061067d9190614064565b612e57565b6040516106989a9998979695949392919061490f565b60405180910390f35b6106bb60048036038101906106b691906142bc565b612f5e565b005b6106d760048036038101906106d29190614064565b613030565b005b6106f360048036038101906106ee9190614064565b61352d565b005b61070f600480360381019061070a9190614064565b61387c565b60405161071c91906140d6565b60405180910390f35b61073f600480360381019061073a9190614064565b6138c2565b005b61075b600480360381019061075691906142bc565b613b8b565b005b61077760048036038101906107729190614064565b613c11565b60405161078491906140d6565b60405180910390f35b60006006600083815260200190815260200160002060009054906101000a900460ff169050919050565b60066020528060005260406000206000915054906101000a900460ff1681565b600060036000838152602001908152602001600020805490509050919050565b6107ff613c1f565b600073ffffffffffffffffffffffffffffffffffffffff168673ffffffffffffffffffffffffffffffffffffffff16141580156108695750600073ffffffffffffffffffffffffffffffffffffffff168573ffffffffffffffffffffffffffffffffffffffff1614155b6108a8576040517f08c379a000000000000000000000000000000000000000000000000000000000815260040161089f90614a08565b60405180910390fd5b6000841180156108b85750600083115b6108f7576040517f08c379a00000000000000000000000000000000000000000000000000000000081526004016108ee90614a74565b60405180910390fd5b6000821161093a576040517f08c379a000000000000000000000000000000000000000000000000000000000815260040161093190614ae0565b60405180910390fd5b6005811015801561094e5750620151808111155b61098d576040517f08c379a000000000000000000000000000000000000000000000000000000000815260040161098490614b4c565b60405180910390fd5b6000600760008154809291906109a290614b9b565b91905055905060006109b382610f21565b9050600083426109c39190614be3565b90506109f23330898c73ffffffffffffffffffffffffffffffffffffffff16613c65909392919063ffffffff16565b8773ffffffffffffffffffffffffffffffffffffffff168973ffffffffffffffffffffffffffffffffffffffff1614610a5357610a523330878c73ffffffffffffffffffffffffffffffffffffffff16613c65909392919063ffffffff16565b5b6040518061018001604052808381526020013373ffffffffffffffffffffffffffffffffffffffff1681526020018a73ffffffffffffffffffffffffffffffffffffffff1681526020018973ffffffffffffffffffffffffffffffffffffffff168152602001888152602001878152602001868152602001828152602001600073ffffffffffffffffffffffffffffffffffffffff1681526020016000815260200160001515815260200160001515815250600260008481526020019081526020016000206000820151816000015560208201518160010160006101000a81548173ffffffffffffffffffffffffffffffffffffffff021916908373ffffffffffffffffffffffffffffffffffffffff16021790555060408201518160020160006101000a81548173ffffffffffffffffffffffffffffffffffffffff021916908373ffffffffffffffffffffffffffffffffffffffff16021790555060608201518160030160006101000a81548173ffffffffffffffffffffffffffffffffffffffff021916908373ffffffffffffffffffffffffffffffffffffffff1602179055506080820151816004015560a0820151816005015560c0820151816006015560e082015181600701556101008201518160080160006101000a81548173ffffffffffffffffffffffffffffffffffffffff021916908373ffffffffffffffffffffffffffffffffffffffff160217905550610120820151816009015561014082015181600a0160006101000a81548160ff02191690831515021790555061016082015181600a0160016101000a81548160ff0219169083151502179055509050503373ffffffffffffffffffffffffffffffffffffffff16827fa9259a018eccaaaf43030f42c6c21dbb900c67f1cc45c550854c1db8ea3396c28b8b8b8b8b88604051610d0896959493929190614c17565b60405180910390a3505050610d1b613ce7565b505050505050565b6060600160075403610d8057600067ffffffffffffffff811115610d4a57610d49614c78565b5b604051908082528060200260200182016040528015610d785781602001602082028036833780820191505090505b509050610f1e565b60006001600754610d919190614ca7565b67ffffffffffffffff811115610daa57610da9614c78565b5b604051908082528060200260200182016040528015610dd85781602001602082028036833780820191505090505b509050600080600190505b600754811015610e76576000610df882610f21565b90506000600260008381526020019081526020016000209050428160070154118015610e33575080600a0160009054906101000a900460ff16155b15610e675781858581518110610e4c57610e4b614cdb565b5b6020026020010181815250508380610e6390614b9b565b9450505b50508080600101915050610de3565b5060008167ffffffffffffffff811115610e9357610e92614c78565b5b604051908082528060200260200182016040528015610ec15781602001602082028036833780820191505090505b50905060005b82811015610f1657838181518110610ee257610ee1614cdb565b5b6020026020010151828281518110610efd57610efc614cdb565b5b6020026020010181815250508080600101915050610ec7565b508093505050505b90565b6000816080600854901b179050919050565b60056020528060005260406000206000915054906101000a900460ff1681565b610f5b613c1f565b60008811610f9e576040517f08c379a0000000000000000000000000000000000000000000000000000000008152600401610f9590614d56565b60405180910390fd5b600073ffffffffffffffffffffffffffffffffffffffff168773ffffffffffffffffffffffffffffffffffffffff160361100d576040517f08c379a000000000000000000000000000000000000000000000000000000000815260040161100490614dc2565b60405180910390fd5b600073ffffffffffffffffffffffffffffffffffffffff168673ffffffffffffffffffffffffffffffffffffffff160361107c576040517f08c379a000000000000000000000000000000000000000000000000000000000815260040161107390614e2e565b60405180910390fd5b600085116110bf576040517f08c379a00000000000000000000000000000000000000000000000000000000081526004016110b690614e9a565b60405180910390fd5b818190508484905014611107576040517f08c379a00000000000000000000000000000000000000000000000000000000081526004016110fe90614f06565b60405180910390fd5b6000848490501161114d576040517f08c379a000000000000000000000000000000000000000000000000000000000815260040161114490614f72565b60405180910390fd5b6006600089815260200190815260200160002060009054906101000a900460ff16156111ae576040517f08c379a00000000000000000000000000000000000000000000000000000000081526004016111a590614fde565b60405180910390fd5b6000805b838390508110156111f1578383828181106111d0576111cf614cdb565b5b90506020020135826111e29190614be3565b915080806001019150506111b2565b5085811115611235576040517f08c379a000000000000000000000000000000000000000000000000000000000815260040161122c9061504a565b60405180910390fd5b6112623330838a73ffffffffffffffffffffffffffffffffffffffff16613c65909392919063ffffffff16565b60005b8585905081101561130b57600084848381811061128557611284614cdb565b5b9050602002013511156112fe576112fd8686838181106112a8576112a7614cdb565b5b90506020020160208101906112bd91906142bc565b8585848181106112d0576112cf614cdb565b5b905060200201358a73ffffffffffffffffffffffffffffffffffffffff16613cf19092919063ffffffff16565b5b8080600101915050611265565b506001600660008b815260200190815260200160002060006101000a81548160ff0219169083151502179055503373ffffffffffffffffffffffffffffffffffffffff16897fe5d91307dfc7d878539ac28e3eff79832da8ba51b6428a4536885b76339ff626898460405161138192919061506a565b60405180910390a33373ffffffffffffffffffffffffffffffffffffffff16897fbab5c6d3b38f98ccd8b0a52fd88043279521df70e4ab0dbd4023e673f4bc8a7c60405160405180910390a3506113d6613ce7565b5050505050505050565b6000600854905090565b6201518081565b60026020528060005260406000206000915090508060000154908060010160009054906101000a900473ffffffffffffffffffffffffffffffffffffffff16908060020160009054906101000a900473ffffffffffffffffffffffffffffffffffffffff16908060030160009054906101000a900473ffffffffffffffffffffffffffffffffffffffff16908060040154908060050154908060060154908060070154908060080160009054906101000a900473ffffffffffffffffffffffffffffffffffffffff169080600901549080600a0160009054906101000a900460ff169080600a0160019054906101000a900460ff1690508c565b6000600160075403611500576000905061151a565b61151760016007546115129190614ca7565b610f21565b90505b90565b8160008111611561576040517f08c379a000000000000000000000000000000000000000000000000000000000815260040161155890614d56565b60405180910390fd5b600061156c82611930565b905060008111801561157f575060075481105b6115be576040517f08c379a00000000000000000000000000000000000000000000000000000000081526004016115b590614d56565b60405180910390fd5b60006002600086815260200190815260200160002090508060070154421061161b576040517f08c379a0000000000000000000000000000000000000000000000000000000008152600401611612906150df565b60405180910390fd5b80600a0160009054906101000a900460ff161561166d576040517f08c379a00000000000000000000000000000000000000000000000000000000081526004016116649061514b565b60405180910390fd5b600084116116b0576040517f08c379a00000000000000000000000000000000000000000000000000000000081526004016116a7906151b7565b60405180910390fd5b6004600086815260200190815260200160002060003373ffffffffffffffffffffffffffffffffffffffff1673ffffffffffffffffffffffffffffffffffffffff168152602001908152602001600020548411611742576040517f08c379a000000000000000000000000000000000000000000000000000000000815260040161173990615223565b60405180910390fd5b836004600087815260200190815260200160002060003373ffffffffffffffffffffffffffffffffffffffff1673ffffffffffffffffffffffffffffffffffffffff168152602001908152602001600020819055506003600086815260200190815260200160002060405180606001604052803373ffffffffffffffffffffffffffffffffffffffff16815260200186815260200142815250908060018154018082558091505060019003906000526020600020906003020160009091909190915060008201518160000160006101000a81548173ffffffffffffffffffffffffffffffffffffffff021916908373ffffffffffffffffffffffffffffffffffffffff160217905550602082015181600101556040820151816002015550503373ffffffffffffffffffffffffffffffffffffffff16857f51db8e23b3f4479b162fd48823b8402895442b8f6cfd94f66239391881ec7b6f86426040516118aa929190615243565b60405180910390a35050505050565b6118c1613d70565b6000600560008373ffffffffffffffffffffffffffffffffffffffff1673ffffffffffffffffffffffffffffffffffffffff16815260200190815260200160002060006101000a81548160ff02191690831515021790555050565b611924613d70565b61192e6000613df7565b565b60006fffffffffffffffffffffffffffffffff82169050919050565b6004602052816000526040600020602052806000526040600020600091509150505481565b606081600081116119b7576040517f08c379a00000000000000000000000000000000000000000000000000000000081526004016119ae90614d56565b60405180910390fd5b60006119c282611930565b90506000811180156119d5575060075481105b611a14576040517f08c379a0000000000000000000000000000000000000000000000000000000008152600401611a0b90614d56565b60405180910390fd5b60036000858152602001908152602001600020805480602002602001604051908101604052809291908181526020016000905b82821015611ae357838290600052602060002090600302016040518060600160405290816000820160009054906101000a900473ffffffffffffffffffffffffffffffffffffffff1673ffffffffffffffffffffffffffffffffffffffff1673ffffffffffffffffffffffffffffffffffffffff1681526020016001820154815260200160028201548152505081526020019060010190611a47565b5050505092505050919050565b6000600160009054906101000a900473ffffffffffffffffffffffffffffffffffffffff16905090565b600080600060026000858152602001908152602001600020905060006003600086815260200190815260200160002090506000818054905003611b6557600080935093505050611c2b565b60008060005b8380549050811015611c1f5782848281548110611b8b57611b8a614cdb565b5b9060005260206000209060030201600101541115611c1257838181548110611bb657611bb5614cdb565b5b9060005260206000209060030201600101549250838181548110611bdd57611bdc614cdb565b5b906000526020600020906003020160000160009054906101000a900473ffffffffffffffffffffffffffffffffffffffff1691505b8080600101915050611b6b565b50818195509550505050505b915091565b611c38613f67565b8160008111611c7c576040517f08c379a0000000000000000000000000000000000000000000000000000000008152600401611c7390614d56565b60405180910390fd5b6000611c8782611930565b9050600081118015611c9a575060075481105b611cd9576040517f08c379a0000000000000000000000000000000000000000000000000000000008152600401611cd090614d56565b60405180910390fd5b6002600085815260200190815260200160002060405180610180016040529081600082015481526020016001820160009054906101000a900473ffffffffffffffffffffffffffffffffffffffff1673ffffffffffffffffffffffffffffffffffffffff1673ffffffffffffffffffffffffffffffffffffffff1681526020016002820160009054906101000a900473ffffffffffffffffffffffffffffffffffffffff1673ffffffffffffffffffffffffffffffffffffffff1673ffffffffffffffffffffffffffffffffffffffff1681526020016003820160009054906101000a900473ffffffffffffffffffffffffffffffffffffffff1673ffffffffffffffffffffffffffffffffffffffff1673ffffffffffffffffffffffffffffffffffffffff168152602001600482015481526020016005820154815260200160068201548152602001600782015481526020016008820160009054906101000a900473ffffffffffffffffffffffffffffffffffffffff1673ffffffffffffffffffffffffffffffffffffffff1673ffffffffffffffffffffffffffffffffffffffff16815260200160098201548152602001600a820160009054906101000a900460ff16151515158152602001600a820160019054906101000a900460ff16151515158152505092505050919050565b60085481565b60075481565b60036020528160005260406000208181548110611ef357600080fd5b9060005260206000209060030201600091509150508060000160009054906101000a900473ffffffffffffffffffffffffffffffffffffffff16908060010154908060020154905083565b8060008111611f82576040517f08c379a0000000000000000000000000000000000000000000000000000000008152600401611f7990614d56565b60405180910390fd5b6000611f8d82611930565b9050600081118015611fa0575060075481105b611fdf576040517f08c379a0000000000000000000000000000000000000000000000000000000008152600401611fd690614d56565b60405180910390fd5b611fe7613c1f565b60006002600085815260200190815260200160002090508060010160009054906101000a900473ffffffffffffffffffffffffffffffffffffffff1673ffffffffffffffffffffffffffffffffffffffff163373ffffffffffffffffffffffffffffffffffffffff16148061208e575061205f611af0565b73ffffffffffffffffffffffffffffffffffffffff163373ffffffffffffffffffffffffffffffffffffffff16145b6120cd576040517f08c379a00000000000000000000000000000000000000000000000000000000081526004016120c4906152b8565b60405180910390fd5b80600a0160009054906101000a900460ff161561211f576040517f08c379a00000000000000000000000000000000000000000000000000000000081526004016121169061514b565b60405180910390fd5b610e1081600701546121319190614be3565b4211612172576040517f08c379a000000000000000000000000000000000000000000000000000000000815260040161216990615324565b60405180910390fd5b6121e98160010160009054906101000a900473ffffffffffffffffffffffffffffffffffffffff1682600401548360020160009054906101000a900473ffffffffffffffffffffffffffffffffffffffff1673ffffffffffffffffffffffffffffffffffffffff16613cf19092919063ffffffff16565b6122608160010160009054906101000a900473ffffffffffffffffffffffffffffffffffffffff1682600601548360020160009054906101000a900473ffffffffffffffffffffffffffffffffffffffff1673ffffffffffffffffffffffffffffffffffffffff16613cf19092919063ffffffff16565b80600a0160019054906101000a900460ff16156122ef576122ee8160080160009054906101000a900473ffffffffffffffffffffffffffffffffffffffff1682600901548360020160009054906101000a900473ffffffffffffffffffffffffffffffffffffffff1673ffffffffffffffffffffffffffffffffffffffff16613cf19092919063ffffffff16565b5b600181600a0160006101000a81548160ff02191690831515021790555050612315613ce7565b505050565b600080600260008481526020019081526020016000209050428160070154118015612354575080600a0160009054906101000a900460ff16155b915050919050565b81600081116123a0576040517f08c379a000000000000000000000000000000000000000000000000000000000815260040161239790614d56565b60405180910390fd5b60006123ab82611930565b90506000811180156123be575060075481105b6123fd576040517f08c379a00000000000000000000000000000000000000000000000000000000081526004016123f490614d56565b60405180910390fd5b600560003373ffffffffffffffffffffffffffffffffffffffff1673ffffffffffffffffffffffffffffffffffffffff16815260200190815260200160002060009054906101000a900460ff16612489576040517f08c379a000000000000000000000000000000000000000000000000000000000815260040161248090615390565b60405180910390fd5b612491613c1f565b600060026000868152602001908152602001600020905080600a0160019054906101000a900460ff166124f9576040517f08c379a00000000000000000000000000000000000000000000000000000000081526004016124f0906153fc565b60405180910390fd5b80600a0160009054906101000a900460ff161561254b576040517f08c379a00000000000000000000000000000000000000000000000000000000081526004016125429061514b565b60405180910390fd5b600073ffffffffffffffffffffffffffffffffffffffff168160080160009054906101000a900473ffffffffffffffffffffffffffffffffffffffff1673ffffffffffffffffffffffffffffffffffffffff16036125de576040517f08c379a00000000000000000000000000000000000000000000000000000000081526004016125d590615468565b60405180910390fd5b60008411612621576040517f08c379a0000000000000000000000000000000000000000000000000000000008152600401612618906154d4565b60405180910390fd5b6126988160080160009054906101000a900473ffffffffffffffffffffffffffffffffffffffff1682600401548360020160009054906101000a900473ffffffffffffffffffffffffffffffffffffffff1673ffffffffffffffffffffffffffffffffffffffff16613cf19092919063ffffffff16565b61270f8160080160009054906101000a900473ffffffffffffffffffffffffffffffffffffffff1682600601548360020160009054906101000a900473ffffffffffffffffffffffffffffffffffffffff1673ffffffffffffffffffffffffffffffffffffffff16613cf19092919063ffffffff16565b6127868160080160009054906101000a900473ffffffffffffffffffffffffffffffffffffffff1682600901548360020160009054906101000a900473ffffffffffffffffffffffffffffffffffffffff1673ffffffffffffffffffffffffffffffffffffffff16613cf19092919063ffffffff16565b600181600a0160006101000a81548160ff0219169083151502179055508060080160009054906101000a900473ffffffffffffffffffffffffffffffffffffffff1673ffffffffffffffffffffffffffffffffffffffff16857f8db005ff76be03d4cedb33b005e4017a1515e7392ec5738450592d013f8900d683600401548460060154856009015460405161281e939291906154f4565b60405180910390a38060080160009054906101000a900473ffffffffffffffffffffffffffffffffffffffff1673ffffffffffffffffffffffffffffffffffffffff16857fbab5c6d3b38f98ccd8b0a52fd88043279521df70e4ab0dbd4023e673f4bc8a7c60405160405180910390a350612897613ce7565b50505050565b84600081116128e1576040517f08c379a00000000000000000000000000000000000000000000000000000000081526004016128d890614d56565b60405180910390fd5b60006128ec82611930565b90506000811180156128ff575060075481105b61293e576040517f08c379a000000000000000000000000000000000000000000000000000000000815260040161293590614d56565b60405180910390fd5b600560003373ffffffffffffffffffffffffffffffffffffffff1673ffffffffffffffffffffffffffffffffffffffff16815260200190815260200160002060009054906101000a900460ff166129ca576040517f08c379a00000000000000000000000000000000000000000000000000000000081526004016129c190615390565b60405180910390fd5b6129d2613c1f565b600060026000898152602001908152602001600020905080600a0160019054906101000a900460ff16612a3a576040517f08c379a0000000000000000000000000000000000000000000000000000000008152600401612a31906153fc565b60405180910390fd5b80600a0160009054906101000a900460ff1615612a8c576040517f08c379a0000000000000000000000000000000000000000000000000000000008152600401612a839061514b565b60405180910390fd5b848490508787905014612ad4576040517f08c379a0000000000000000000000000000000000000000000000000000000008152600401612acb90614f06565b60405180910390fd5b60008787905011612b1a576040517f08c379a0000000000000000000000000000000000000000000000000000000008152600401612b1190614f72565b60405180910390fd5b6000805b86869050811015612b5d57868682818110612b3c57612b3b614cdb565b5b9050602002013582612b4e9190614be3565b91508080600101915050612b1e565b508160090154811115612ba5576040517f08c379a0000000000000000000000000000000000000000000000000000000008152600401612b9c90615577565b60405180910390fd5b60005b88889050811015612c72576000878783818110612bc857612bc7614cdb565b5b905060200201351115612c6557612c64898983818110612beb57612bea614cdb565b5b9050602002016020810190612c0091906142bc565b888884818110612c1357612c12614cdb565b5b905060200201358560030160009054906101000a900473ffffffffffffffffffffffffffffffffffffffff1673ffffffffffffffffffffffffffffffffffffffff16613cf19092919063ffffffff16565b5b8080600101915050612ba8565b50612cea8260080160009054906101000a900473ffffffffffffffffffffffffffffffffffffffff1683600601548460020160009054906101000a900473ffffffffffffffffffffffffffffffffffffffff1673ffffffffffffffffffffffffffffffffffffffff16613cf19092919063ffffffff16565b6000818360090154612cfc9190614ca7565b90506000811115612d7b57612d7a8360010160009054906101000a900473ffffffffffffffffffffffffffffffffffffffff16828560030160009054906101000a900473ffffffffffffffffffffffffffffffffffffffff1673ffffffffffffffffffffffffffffffffffffffff16613cf19092919063ffffffff16565b5b600183600a0160006101000a81548160ff021916908315150217905550897fc800c5d39e8ce985377f5a08f0c8eb3e9c562d566578cfb81d49140df6c563a68a8a8a8a604051612dce94939291906156b5565b60405180910390a28260080160009054906101000a900473ffffffffffffffffffffffffffffffffffffffff1673ffffffffffffffffffffffffffffffffffffffff168a7fbab5c6d3b38f98ccd8b0a52fd88043279521df70e4ab0dbd4023e673f4bc8a7c60405160405180910390a3505050612e49613ce7565b50505050505050565b600581565b6000806000806000806000806000806000600260008d815260200190815260200160002090508060020160009054906101000a900473ffffffffffffffffffffffffffffffffffffffff168160030160009054906101000a900473ffffffffffffffffffffffffffffffffffffffff16826004015483600501548460060154856007015486600a0160009054906101000a900460ff168760010160009054906101000a900473ffffffffffffffffffffffffffffffffffffffff168860080160009054906101000a900473ffffffffffffffffffffffffffffffffffffffff1689600901549a509a509a509a509a509a509a509a509a509a50509193959799509193959799565b612f66613d70565b600073ffffffffffffffffffffffffffffffffffffffff168173ffffffffffffffffffffffffffffffffffffffff1603612fd5576040517f08c379a0000000000000000000000000000000000000000000000000000000008152600401612fcc9061573c565b60405180910390fd5b6001600560008373ffffffffffffffffffffffffffffffffffffffff1673ffffffffffffffffffffffffffffffffffffffff16815260200190815260200160002060006101000a81548160ff02191690831515021790555050565b8060008111613074576040517f08c379a000000000000000000000000000000000000000000000000000000000815260040161306b90614d56565b60405180910390fd5b600061307f82611930565b9050600081118015613092575060075481105b6130d1576040517f08c379a00000000000000000000000000000000000000000000000000000000081526004016130c890614d56565b60405180910390fd5b600560003373ffffffffffffffffffffffffffffffffffffffff1673ffffffffffffffffffffffffffffffffffffffff16815260200190815260200160002060009054906101000a900460ff1661315d576040517f08c379a000000000000000000000000000000000000000000000000000000000815260040161315490615390565b60405180910390fd5b613165613c1f565b600060026000858152602001908152602001600020905080600a0160019054906101000a900460ff166131cd576040517f08c379a00000000000000000000000000000000000000000000000000000000081526004016131c4906153fc565b60405180910390fd5b80600a0160009054906101000a900460ff161561321f576040517f08c379a00000000000000000000000000000000000000000000000000000000081526004016132169061514b565b60405180910390fd5b600073ffffffffffffffffffffffffffffffffffffffff168160080160009054906101000a900473ffffffffffffffffffffffffffffffffffffffff1673ffffffffffffffffffffffffffffffffffffffff16036132b2576040517f08c379a00000000000000000000000000000000000000000000000000000000081526004016132a990615468565b60405180910390fd5b6133298160080160009054906101000a900473ffffffffffffffffffffffffffffffffffffffff1682600401548360020160009054906101000a900473ffffffffffffffffffffffffffffffffffffffff1673ffffffffffffffffffffffffffffffffffffffff16613cf19092919063ffffffff16565b6133a08160080160009054906101000a900473ffffffffffffffffffffffffffffffffffffffff1682600601548360020160009054906101000a900473ffffffffffffffffffffffffffffffffffffffff1673ffffffffffffffffffffffffffffffffffffffff16613cf19092919063ffffffff16565b6134178160080160009054906101000a900473ffffffffffffffffffffffffffffffffffffffff1682600901548360020160009054906101000a900473ffffffffffffffffffffffffffffffffffffffff1673ffffffffffffffffffffffffffffffffffffffff16613cf19092919063ffffffff16565b600181600a0160006101000a81548160ff0219169083151502179055508060080160009054906101000a900473ffffffffffffffffffffffffffffffffffffffff1673ffffffffffffffffffffffffffffffffffffffff16847f8db005ff76be03d4cedb33b005e4017a1515e7392ec5738450592d013f8900d68360040154846006015485600901546040516134af939291906154f4565b60405180910390a38060080160009054906101000a900473ffffffffffffffffffffffffffffffffffffffff1673ffffffffffffffffffffffffffffffffffffffff16847fbab5c6d3b38f98ccd8b0a52fd88043279521df70e4ab0dbd4023e673f4bc8a7c60405160405180910390a350613528613ce7565b505050565b8060008111613571576040517f08c379a000000000000000000000000000000000000000000000000000000000815260040161356890614d56565b60405180910390fd5b600061357c82611930565b905060008111801561358f575060075481105b6135ce576040517f08c379a00000000000000000000000000000000000000000000000000000000081526004016135c590614d56565b60405180910390fd5b6000600260008581526020019081526020016000209050806007015442101561362c576040517f08c379a0000000000000000000000000000000000000000000000000000000008152600401613623906157a8565b60405180910390fd5b600073ffffffffffffffffffffffffffffffffffffffff168160080160009054906101000a900473ffffffffffffffffffffffffffffffffffffffff1673ffffffffffffffffffffffffffffffffffffffff16146136bf576040517f08c379a00000000000000000000000000000000000000000000000000000000081526004016136b690615814565b60405180910390fd5b6000600360008681526020019081526020016000209050600081805490501161371d576040517f08c379a000000000000000000000000000000000000000000000000000000000815260040161371490615880565b60405180910390fd5b60008060005b83805490508110156137d7578284828154811061374357613742614cdb565b5b90600052602060002090600302016001015411156137ca5783818154811061376e5761376d614cdb565b5b906000526020600020906003020160010154925083818154811061379557613794614cdb565b5b906000526020600020906003020160000160009054906101000a900473ffffffffffffffffffffffffffffffffffffffff1691505b8080600101915050613723565b50808460080160006101000a81548173ffffffffffffffffffffffffffffffffffffffff021916908373ffffffffffffffffffffffffffffffffffffffff1602179055508184600901819055508073ffffffffffffffffffffffffffffffffffffffff16877fbed9cfe95abcf33e51d736159c1d87d2a83ed769498c7eb77be5d7534e040ef38460405161386b91906140d6565b60405180910390a350505050505050565b600080600260008481526020019081526020016000209050428160070154116138a95760009150506138bd565b4281600701546138b99190614ca7565b9150505b919050565b8060008111613906576040517f08c379a00000000000000000000000000000000000000000000000000000000081526004016138fd90614d56565b60405180910390fd5b600061391182611930565b9050600081118015613924575060075481105b613963576040517f08c379a000000000000000000000000000000000000000000000000000000000815260040161395a90614d56565b60405180910390fd5b61396b613c1f565b60006002600085815260200190815260200160002090508060080160009054906101000a900473ffffffffffffffffffffffffffffffffffffffff1673ffffffffffffffffffffffffffffffffffffffff163373ffffffffffffffffffffffffffffffffffffffff1614613a14576040517f08c379a0000000000000000000000000000000000000000000000000000000008152600401613a0b906158ec565b60405180910390fd5b80600a0160019054906101000a900460ff1615613a66576040517f08c379a0000000000000000000000000000000000000000000000000000000008152600401613a5d90615958565b60405180910390fd5b80600a0160009054906101000a900460ff1615613ab8576040517f08c379a0000000000000000000000000000000000000000000000000000000008152600401613aaf9061514b565b60405180910390fd5b613b0d333083600901548460020160009054906101000a900473ffffffffffffffffffffffffffffffffffffffff1673ffffffffffffffffffffffffffffffffffffffff16613c65909392919063ffffffff16565b600181600a0160016101000a81548160ff0219169083151502179055503373ffffffffffffffffffffffffffffffffffffffff16847fbc6750c6fe612ccb3663713ccbf206062e67a6253265f3c53014428d4679988a8360090154604051613b7591906140d6565b60405180910390a350613b86613ce7565b505050565b613b93613d70565b600073ffffffffffffffffffffffffffffffffffffffff168173ffffffffffffffffffffffffffffffffffffffff1603613c055760006040517f1e4fbdf7000000000000000000000000000000000000000000000000000000008152600401613bfc91906146de565b60405180910390fd5b613c0e81613df7565b50565b6000608082901c9050919050565b600260005403613c5b576040517f3ee5aeb500000000000000000000000000000000000000000000000000000000815260040160405180910390fd5b6002600081905550565b613ce1848573ffffffffffffffffffffffffffffffffffffffff166323b872dd868686604051602401613c9a93929190615978565b604051602081830303815290604052915060e01b6020820180517bffffffffffffffffffffffffffffffffffffffffffffffffffffffff8381831617835250505050613ebd565b50505050565b6001600081905550565b613d6b838473ffffffffffffffffffffffffffffffffffffffff1663a9059cbb8585604051602401613d2492919061506a565b604051602081830303815290604052915060e01b6020820180517bffffffffffffffffffffffffffffffffffffffffffffffffffffffff8381831617835250505050613ebd565b505050565b613d78613f5f565b73ffffffffffffffffffffffffffffffffffffffff16613d96611af0565b73ffffffffffffffffffffffffffffffffffffffff1614613df557613db9613f5f565b6040517f118cdaa7000000000000000000000000000000000000000000000000000000008152600401613dec91906146de565b60405180910390fd5b565b6000600160009054906101000a900473ffffffffffffffffffffffffffffffffffffffff16905081600160006101000a81548173ffffffffffffffffffffffffffffffffffffffff021916908373ffffffffffffffffffffffffffffffffffffffff1602179055508173ffffffffffffffffffffffffffffffffffffffff168173ffffffffffffffffffffffffffffffffffffffff167f8be0079c531659141344cd1fd0a4f28419497f9722a3daafe3b4186f6b6457e060405160405180910390a35050565b600080602060008451602086016000885af180613ee0576040513d6000823e3d81fd5b3d925060005191505060008214613efb576001811415613f17565b60008473ffffffffffffffffffffffffffffffffffffffff163b145b15613f5957836040517f5274afe7000000000000000000000000000000000000000000000000000000008152600401613f5091906146de565b60405180910390fd5b50505050565b600033905090565b60405180610180016040528060008152602001600073ffffffffffffffffffffffffffffffffffffffff168152602001600073ffffffffffffffffffffffffffffffffffffffff168152602001600073ffffffffffffffffffffffffffffffffffffffff16815260200160008152602001600081526020016000815260200160008152602001600073ffffffffffffffffffffffffffffffffffffffff168152602001600081526020016000151581526020016000151581525090565b600080fd5b600080fd5b6000819050919050565b6140418161402e565b811461404c57600080fd5b50565b60008135905061405e81614038565b92915050565b60006020828403121561407a57614079614024565b5b60006140888482850161404f565b91505092915050565b60008115159050919050565b6140a681614091565b82525050565b60006020820190506140c1600083018461409d565b92915050565b6140d08161402e565b82525050565b60006020820190506140eb60008301846140c7565b92915050565b600073ffffffffffffffffffffffffffffffffffffffff82169050919050565b600061411c826140f1565b9050919050565b61412c81614111565b811461413757600080fd5b50565b60008135905061414981614123565b92915050565b60008060008060008060c0878903121561416c5761416b614024565b5b600061417a89828a0161413a565b965050602061418b89828a0161413a565b955050604061419c89828a0161404f565b94505060606141ad89828a0161404f565b93505060806141be89828a0161404f565b92505060a06141cf89828a0161404f565b9150509295509295509295565b600081519050919050565b600082825260208201905092915050565b6000819050602082019050919050565b6142118161402e565b82525050565b60006142238383614208565b60208301905092915050565b6000602082019050919050565b6000614247826141dc565b61425181856141e7565b935061425c836141f8565b8060005b8381101561428d5781516142748882614217565b975061427f8361422f565b925050600181019050614260565b5085935050505092915050565b600060208201905081810360008301526142b4818461423c565b905092915050565b6000602082840312156142d2576142d1614024565b5b60006142e08482850161413a565b91505092915050565b600080fd5b600080fd5b600080fd5b60008083601f84011261430e5761430d6142e9565b5b8235905067ffffffffffffffff81111561432b5761432a6142ee565b5b602083019150836020820283011115614347576143466142f3565b5b9250929050565b60008083601f840112614364576143636142e9565b5b8235905067ffffffffffffffff811115614381576143806142ee565b5b60208301915083602082028301111561439d5761439c6142f3565b5b9250929050565b60008060008060008060008060c0898b0312156143c4576143c3614024565b5b60006143d28b828c0161404f565b98505060206143e38b828c0161413a565b97505060406143f48b828c0161413a565b96505060606144058b828c0161404f565b955050608089013567ffffffffffffffff81111561442657614425614029565b5b6144328b828c016142f8565b945094505060a089013567ffffffffffffffff81111561445557614454614029565b5b6144618b828c0161434e565b92509250509295985092959890939650565b61447c81614111565b82525050565b600061018082019050614498600083018f6140c7565b6144a5602083018e614473565b6144b2604083018d614473565b6144bf606083018c614473565b6144cc608083018b6140c7565b6144d960a083018a6140c7565b6144e660c08301896140c7565b6144f360e08301886140c7565b614501610100830187614473565b61450f6101208301866140c7565b61451d61014083018561409d565b61452b61016083018461409d565b9d9c50505050505050505050505050565b6000806040838503121561455357614552614024565b5b60006145618582860161404f565b92505060206145728582860161404f565b9150509250929050565b6000806040838503121561459357614592614024565b5b60006145a18582860161404f565b92505060206145b28582860161413a565b9150509250929050565b600081519050919050565b600082825260208201905092915050565b6000819050602082019050919050565b6145f181614111565b82525050565b60608201600082015161460d60008501826145e8565b5060208201516146206020850182614208565b5060408201516146336040850182614208565b50505050565b600061464583836145f7565b60608301905092915050565b6000602082019050919050565b6000614669826145bc565b61467381856145c7565b935061467e836145d8565b8060005b838110156146af5781516146968882614639565b97506146a183614651565b925050600181019050614682565b5085935050505092915050565b600060208201905081810360008301526146d6818461465e565b905092915050565b60006020820190506146f36000830184614473565b92915050565b600060408201905061470e60008301856140c7565b61471b6020830184614473565b9392505050565b61472b81614091565b82525050565b610180820160008201516147486000850182614208565b50602082015161475b60208501826145e8565b50604082015161476e60408501826145e8565b50606082015161478160608501826145e8565b5060808201516147946080850182614208565b5060a08201516147a760a0850182614208565b5060c08201516147ba60c0850182614208565b5060e08201516147cd60e0850182614208565b506101008201516147e26101008501826145e8565b506101208201516147f7610120850182614208565b5061014082015161480c610140850182614722565b50610160820151614821610160850182614722565b50505050565b60006101808201905061483d6000830184614731565b92915050565b60006060820190506148586000830186614473565b61486560208301856140c7565b61487260408301846140c7565b949350505050565b60008060008060006060868803121561489657614895614024565b5b60006148a48882890161404f565b955050602086013567ffffffffffffffff8111156148c5576148c4614029565b5b6148d1888289016142f8565b9450945050604086013567ffffffffffffffff8111156148f4576148f3614029565b5b6149008882890161434e565b92509250509295509295909350565b600061014082019050614925600083018d614473565b614932602083018c614473565b61493f604083018b6140c7565b61494c606083018a6140c7565b61495960808301896140c7565b61496660a08301886140c7565b61497360c083018761409d565b61498060e0830186614473565b61498e610100830185614473565b61499c6101208301846140c7565b9b9a5050505050505050505050565b600082825260208201905092915050565b7f496e76616c696420746f6b656e20616464726573736573000000000000000000600082015250565b60006149f26017836149ab565b91506149fd826149bc565b602082019050919050565b60006020820190508181036000830152614a21816149e5565b9050919050565b7f496e76616c696420616d6f756e74730000000000000000000000000000000000600082015250565b6000614a5e600f836149ab565b9150614a6982614a28565b602082019050919050565b60006020820190508181036000830152614a8d81614a51565b9050919050565b7f496e76616c696420726577617264000000000000000000000000000000000000600082015250565b6000614aca600e836149ab565b9150614ad582614a94565b602082019050919050565b60006020820190508181036000830152614af981614abd565b9050919050565b7f496e76616c69642061756374696f6e206475726174696f6e0000000000000000600082015250565b6000614b366018836149ab565b9150614b4182614b00565b602082019050919050565b60006020820190508181036000830152614b6581614b29565b9050919050565b7f4e487b7100000000000000000000000000000000000000000000000000000000600052601160045260246000fd5b6000614ba68261402e565b91507fffffffffffffffffffffffffffffffffffffffffffffffffffffffffffffffff8203614bd857614bd7614b6c565b5b600182019050919050565b6000614bee8261402e565b9150614bf98361402e565b9250828201905080821115614c1157614c10614b6c565b5b92915050565b600060c082019050614c2c6000830189614473565b614c396020830188614473565b614c4660408301876140c7565b614c5360608301866140c7565b614c6060808301856140c7565b614c6d60a08301846140c7565b979650505050505050565b7f4e487b7100000000000000000000000000000000000000000000000000000000600052604160045260246000fd5b6000614cb28261402e565b9150614cbd8361402e565b9250828203905081811115614cd557614cd4614b6c565b5b92915050565b7f4e487b7100000000000000000000000000000000000000000000000000000000600052603260045260246000fd5b7f496e76616c696420696e74656e74204944000000000000000000000000000000600082015250565b6000614d406011836149ab565b9150614d4b82614d0a565b602082019050919050565b60006020820190508181036000830152614d6f81614d33565b9050919050565b7f496e76616c696420757365722061646472657373000000000000000000000000600082015250565b6000614dac6014836149ab565b9150614db782614d76565b602082019050919050565b60006020820190508181036000830152614ddb81614d9f565b9050919050565b7f496e76616c696420746f6b656e20616464726573730000000000000000000000600082015250565b6000614e186015836149ab565b9150614e2382614de2565b602082019050919050565b60006020820190508181036000830152614e4781614e0b565b9050919050565b7f496e76616c696420657870656374656420616d6f756e74000000000000000000600082015250565b6000614e846017836149ab565b9150614e8f82614e4e565b602082019050919050565b60006020820190508181036000830152614eb381614e77565b9050919050565b7f417272617973206c656e677468206d69736d6174636800000000000000000000600082015250565b6000614ef06016836149ab565b9150614efb82614eba565b602082019050919050565b60006020820190508181036000830152614f1f81614ee3565b9050919050565b7f456d70747920726563697069656e747320617272617900000000000000000000600082015250565b6000614f5c6016836149ab565b9150614f6782614f26565b602082019050919050565b60006020820190508181036000830152614f8b81614f4f565b9050919050565b7f496e74656e7420616c726561647920736f6c7665640000000000000000000000600082015250565b6000614fc86015836149ab565b9150614fd382614f92565b602082019050919050565b60006020820190508181036000830152614ff781614fbb565b9050919050565b7f546f74616c206578636565647320657870656374656420616d6f756e74000000600082015250565b6000615034601d836149ab565b915061503f82614ffe565b602082019050919050565b6000602082019050818103600083015261506381615027565b9050919050565b600060408201905061507f6000830185614473565b61508c60208301846140c7565b9392505050565b7f41756374696f6e20656e64656400000000000000000000000000000000000000600082015250565b60006150c9600d836149ab565b91506150d482615093565b602082019050919050565b600060208201905081810360008301526150f8816150bc565b9050919050565b7f496e74656e7420616c726561647920636f6d706c657465640000000000000000600082015250565b60006151356018836149ab565b9150615140826150ff565b602082019050919050565b6000602082019050818103600083015261516481615128565b9050919050565b7f426964206d7573742062652067726561746572207468616e207a65726f000000600082015250565b60006151a1601d836149ab565b91506151ac8261516b565b602082019050919050565b600060208201905081810360008301526151d081615194565b9050919050565b7f426964206e6f7420686967686572207468616e2070726576696f757300000000600082015250565b600061520d601c836149ab565b9150615218826151d7565b602082019050919050565b6000602082019050818103600083015261523c81615200565b9050919050565b600060408201905061525860008301856140c7565b61526560208301846140c7565b9392505050565b7f4e6f7420617574686f72697a6564000000000000000000000000000000000000600082015250565b60006152a2600e836149ab565b91506152ad8261526c565b602082019050919050565b600060208201905081810360008301526152d181615295565b9050919050565b7f546f6f206561726c7920746f2063616e63656c00000000000000000000000000600082015250565b600061530e6013836149ab565b9150615319826152d8565b602082019050919050565b6000602082019050818103600083015261533d81615301565b9050919050565b7f4e6f7420617574686f72697a65642072656c6179657200000000000000000000600082015250565b600061537a6016836149ab565b915061538582615344565b602082019050919050565b600060208201905081810360008301526153a98161536d565b9050919050565b7f536f6c76657220686173206e6f74206465706f73697465640000000000000000600082015250565b60006153e66018836149ab565b91506153f1826153b0565b602082019050919050565b60006020820190508181036000830152615415816153d9565b9050919050565b7f4e6f2077696e6e696e6720736f6c766572000000000000000000000000000000600082015250565b60006154526011836149ab565b915061545d8261541c565b602082019050919050565b6000602082019050818103600083015261548181615445565b9050919050565b7f496e76616c696420636861696e3220696e74656e742049440000000000000000600082015250565b60006154be6018836149ab565b91506154c982615488565b602082019050919050565b600060208201905081810360008301526154ed816154b1565b9050919050565b600060608201905061550960008301866140c7565b61551660208301856140c7565b61552360408301846140c7565b949350505050565b7f546f74616c2065786365656473206465706f736974656420616d6f756e740000600082015250565b6000615561601e836149ab565b915061556c8261552b565b602082019050919050565b6000602082019050818103600083015261559081615554565b9050919050565b600082825260208201905092915050565b6000819050919050565b60006155be83836145e8565b60208301905092915050565b60006155d9602084018461413a565b905092915050565b6000602082019050919050565b60006155fa8385615597565b9350615605826155a8565b8060005b8581101561563e5761561b82846155ca565b61562588826155b2565b9750615630836155e1565b925050600181019050615609565b5085925050509392505050565b600080fd5b82818337505050565b600061566583856141e7565b93507f07ffffffffffffffffffffffffffffffffffffffffffffffffffffffffffffff8311156156985761569761564b565b5b6020830292506156a9838584615650565b82840190509392505050565b600060408201905081810360008301526156d08186886155ee565b905081810360208301526156e5818486615659565b905095945050505050565b7f496e76616c69642072656c617965722061646472657373000000000000000000600082015250565b60006157266017836149ab565b9150615731826156f0565b602082019050919050565b6000602082019050818103600083015261575581615719565b9050919050565b7f41756374696f6e207374696c6c20616374697665000000000000000000000000600082015250565b60006157926014836149ab565b915061579d8261575c565b602082019050919050565b600060208201905081810360008301526157c181615785565b9050919050565b7f41756374696f6e20616c72656164792066696e616c697a656400000000000000600082015250565b60006157fe6019836149ab565b9150615809826157c8565b602082019050919050565b6000602082019050818103600083015261582d816157f1565b9050919050565b7f4e6f206269647320706c61636564000000000000000000000000000000000000600082015250565b600061586a600e836149ab565b915061587582615834565b602082019050919050565b600060208201905081810360008301526158998161585d565b9050919050565b7f4e6f742077696e6e696e6720736f6c7665720000000000000000000000000000600082015250565b60006158d66012836149ab565b91506158e1826158a0565b602082019050919050565b60006020820190508181036000830152615905816158c9565b9050919050565b7f416c7265616479206465706f7369746564000000000000000000000000000000600082015250565b60006159426011836149ab565b915061594d8261590c565b602082019050919050565b6000602082019050818103600083015261597181615935565b9050919050565b600060608201905061598d6000830186614473565b61599a6020830185614473565b6159a760408301846140c7565b94935050505056fea2646970667358221220b688371df010c57ddf7cc827cf4f0d667be2fbd97e179845bf09500bb4c49da964736f6c634300081c0033",
  "linkReferences": {},
  "deployedLinkReferences": {}
}